:020000040800F2
:10000000881D0020D500000811040008F90300082D
:1000100000000000000000000000000000000000E0
:10002000000000000000000000000000D9050008EA
:10003000000000000000000071040008A106000894
:100040000501000805010008050100080501000878
:100050000501000805010008050100080501000868
:100060000000000005010008050100080501000866
:100070000501000841070008050100080000000014
:100080000501000805010008000000000501000846
:100090000501000821070008050100080501000806
:1000A0000501000805010008050100088107000896
:1000B0000501000800000000000000000501000824
:1000C0000348854600F0CEF800480047DD090008E7
:1000D000881D00200C4880F308880C480168090E30
:1000E0000B4A914205D10B480B4901600B480C4962
:1000F00001600C4880470C480047FEE7FEE7FEE73A
:10010000FEE7FEE7FEE70000881D00200400000077
:100110001F00000018100240010000000000014014
:1001200000000000C5060008C100000830B54343C8
:1001300051435C18010C130C0D465D432C1980B221
:1001400092B20546554351430A0C09044D196241C8
:100150005843010C00044019514130BD03460B4384
:100160009B0703D009E008C9121F08C0042AFAD26D
:1001700003E00B780370401C491C521EF9D27047F3
:10018000D2B201E00270401C491EFBD2704700222F
:10019000F6E710B513460A4604461946FFF7F0FF86
:1001A000204610BD70B50446002903D0002020224F
:1001B000012310E0002801D00020C043C046C04603
:1001C0000DE02546D5408D4205D30D469540641B74
:1001D0001D46954040191546521E002DF1DC214662
:1001E00070BDF0B51FB40646002082B0054640241D
:1001F000019100901BE0019922460F46304600F025
:1002000043F8049A059B801A994110D31046194669
:10021000224600F016F8361A8F4101972246012037
:100220000021009F00F00DF838184D410090204645
:10023000641E0028DFDC019B00982946324607B087
:10024000F0BD10B5202A04DB0146203A9140002081
:1002500010BD914020239C1A0346E340194390406F
:1002600010BD0000064C0125064E05E0E36807CCF2
:100270002B430C3C98471034B442F7D3FFF724FFCC
:10028000B4250008D425000810B5202A04DB084650
:10029000203AD040002110BD0B46D340D04020244E
:1002A000A21A91400843194610BD0000C10001D4B4
:1002B000014908607047C0460400024002680029F6
:1002C00003D001210A430260704702490A400260DC
:1002D0007047C046FEFF0000406880B270470000D3
:1002E000B0B502680C4B13408C681C430D6A4B6A16
:1002F0008A6A25430C692C434D6925438C692C433C
:10030000CD6925431D4315430560CA6842600A68EC
:1003100082604968C160B0BD0F80FFFF41607047D7
:1003200080B58CB00120014600F0C4F800200B908D
:1003300003902821049108210891084A029209900B
:10034000802206920791064901910A90059005487E
:1003500001A9FFF7C5FF0CB080BDC046201A0020E0
:100360002438014030000240F0B50A6800231C46E2
:1003700014E003269E400768B74307609D40076866
:100380002F430760C568B543C560CD799D40C668F9
:100390002E43C6609B1C641C102C1CD01546E540E7
:1003A000ED07F7D00D796E1E012EE2D803269E4090
:1003B0008768B74387604E799E4087683743876078
:1003C0000126A6408788B74387808E79A640878814
:1003D00037438780CDE7F0BD10B54B07DB0E0F2408
:1003E0009C40C90889004018016AA14301629A40F3
:1003F000016A1143016210BD7047000080B501F031
:1004000043FB002803D001200007AD49086080BDF0
:100410007047000070B501788278002A15D0FC2260
:100420000A400D4BD4588D07ED0EFF26AE40B44365
:1004300040788001C0B2A8402043D0501F2008401F
:10044000012181400548016070BD1F20014001204D
:1004500088400349086070BD00E400E000E100E06E
:1004600080E100E00000000000000000000000004B
:10047000EFF309800E4B1A6820381060F0C0444634
:100480004D4656465F46F0C008B572B601F012F907
:1004900062B60CBC116808681030F0C8A046A946C6
:1004A000B246BB4680F309882038F0C81847C046DA
:1004B00014000020054A002903D01168014311608F
:1004C00070471168814311607047C04614100240A4
:1004D000054A002903D01168014311607047116873
:1004E000814311607047C04618100240F0B581B0DA
:1004F0000446334D2E462C3E30680007810F002203
:100500003048314F022902D20092074616E00329F3
:1005100001D1009212E031688902090F8F1C316805
:10052000C903890F07D0291F0A680F211140491CF0
:10053000FFF738FE00E02548474300972760316801
:100540000906090F224B5F5C22681146F940616081
:1005500037687F057F0FDB5DD940A1602B68DB0525
:1005600001D41C4B05E033685B0401D44B0800E068
:100570008B08154FE3602B68DB06124B00D5134642
:1005800063612B689B070E4611D02E6803231E4023
:10059000012E16460BD02A681A40022A02D10122E7
:1005A000D60304E02A681A40032A064E00D1A66149
:1005B000E1612968090600D5009F676201B0F0BDBE
:1005C0003010024000127A00006CDC0200093D008D
:1005D000A0250008809FD5007047000080B582B03C
:1005E0000023019312020A430092694601AA01F016
:1005F00037F90198002803D001200007304908602E
:1006000002B080BD70B582B00024019400942248ED
:10061000021F1168012319431160156802210D4062
:100620000095019D6D1C0195009D002D04D10525AF
:100630002D03019EAE42F0D11568AD0701D40094A0
:1006400000E00093009C012C23D1144C112525605F
:1006500004680460046804607F24E4030568A5431B
:1006600005602124E4030568254305601B06146822
:100670001C43146013689B01FCD5026803239A4352
:10068000026002680A43026001680C220A40082ADC
:10069000FAD102B070BDC0460410024000200240F2
:1006A00010B500F07BFE044601F050FB002803D09B
:1006B0000120000702490860204600F089FE10BDB5
:1006C00004ED00E080B51348026801210A4302608E
:1006D0004268114B134043600268104B13400360A3
:1006E0008A040368934303603F22120443689343E0
:1006F0004360C26A0F239A43C262FF225432036BE3
:1007000093430363426B8A43426300218160FFF796
:1007100079FF80BD001002400CB8FFF8FFFFF6FE25
:1007200010B5064C0121204600F01FF8002803D028
:100730000121204600F016F810BDC04600440140DB
:1007400010B5074C0121204600F00FF8002805D015
:100750000121204600F006F8FFF750FE10BDC0460C
:10076000002C0140C94301827047028A0A40531E8F
:100770009A4180890840411E88411040704700001E
:10078000F0B581B0944C1021204600F046F80028C6
:1007900022D01021204600F023F8864C002120466C
:1007A000FFF78CFD01256802FFF780FD2046FFF76B
:1007B00093FD0646282720463946FFF7AFFD204621
:1007C0002946FFF77BFDB91B080405D003480068E4
:1007D0008AB20321FFF702FF01B0F0BDC41A002066
:1007E000016270474A1E9141026801239A435118E1
:1007F00001607047002A03D082680A438260704714
:1008000082688A438260704701225203836893435F
:10081000836082680A4382607047C0690840411E55
:100820008841704710B5CCB20123090AC9B2032927
:1008300003D0022902D1001D00E00830A340002AA5
:1008400003D001681943016010BD0168994301603C
:1008500010BD0000F0B58BB00D46044600680121C4
:100860000091884320600320010362688A43A968DD
:100870001143616021681D4A0A4069681143EA68B2
:100880000A432969114321600002A1688143686914
:100890000843A06001A8FFF729FE1548844204D050
:1008A0004D48844203D1079E02E0089E00E00026E6
:1008B0002068000400D576002F6830463946FFF7DF
:1008C00071FC4743F11B009AD2032B685B089942E5
:1008D00000D3401C2168114204D0064901400007A2
:1008E000400F4018A0810BB0F0BDC046F3E9FFFFF8
:1008F00000440040F0FF0000014A0A4002857047B2
:10090000FF01000070B58AB0012460042146FFF7A2
:10091000D1FDA0032146FFF7DBFD2448039003200F
:10092000400202900925EE0602A93046FFF71CFDA1
:10093000304629462246FFF74FFD0A21304622461F
:10094000FFF74AFD002509950C20089007950695AC
:100950000595E120400204901F4E04A93046FFF7A0
:1009600079FF30462146FFF73DFF01A884701B2127
:100970000180FFF74FFD0E4930462246FFF752FF38
:1009800010213046FFF72CFFFFF7CAFC30462946FE
:10099000FFF73AFF402130462246FFF72BFF05487C
:1009A0002146FFF78BFC0AB070BDC0460203000071
:1009B0000401040030000240B0B50446064D402159
:1009C0002846FFF72AFF0028F9D0E1B22846FFF7B2
:1009D00093FF2046B0BDC0460038014000F001F84A
:1009E000FEE7FFF78FFF00F0DDFDFEE7F0B581B019
:1009F0000D4604461E480768454E306863210022B4
:100A000042543068001D00F0CDFC601C16D1002D52
:100A100014D031681A48426893683468E3608A6089
:100A2000916833681B1D4B603168091D9160316806
:100A300048610168491C016001B0F0BD3C19306893
:100A4000446007D30D4800683168091D00F0D0FCF0
:100A500001B0F0BD074800683168091D00F0C8FC0E
:100A6000054801688C4200D2046001B0F0BDC04668
:100A7000781B00201C000020D01A00202400002039
:100A8000501B0020B0B5044600F0CAFC5C48016869
:100A9000491C01601E4D296800290AD01D480068C4
:100AA00000280CD1E06A2968C96A814207D82C6005
:100AB00005E02C600068012801D100F09DF916487E
:100AC0000168491C61640160E06A14490A68904247
:100AD00000D9086014214143D7484258521C425063
:100AE000401841688A68A160E26060618868221DE0
:100AF00042608A6000F09EFC06480068002806D02C
:100B0000E06A2968C96A814201D200F0FBFCB0BDED
:100B100014000020401B0020541A0020581A002006
:100B200070B500F07DFC104E3068002802D000F057
:100B300081FC70BD0D4C204600F04DFC0C4D28464C
:100B400000F049FC0B4805600B48046005201021AB
:100B5000002200F01BFE30600028E8D007A100F062
:100B6000DDFC00F067FC70BD7C1B0020641A0020D7
:100B7000781A00202800002018000020546D7251BF
:100B80000000000082B001F0DDF80190054C06A5E0
:100B900007A601A8214601F0A5F82846314601F034
:100BA000A5FAF6E7881300002573200D0A0000005F
:100BB0004E6F206572726F7273000000F0B581B0E5
:100BC0000E4D2868002816D09F4E0D4F00F028FCCF
:100BD000F068C468201D00F0E5FB3868401E3860EE
:100BE0002868401E286000F025FC204600F058F8D8
:100BF00028680028EAD101B0F0BDC0464C1A002098
:100C0000481A002010B5026C002A0CD0C3689B184B
:100C1000C3608468A34201D30368C360C368084605
:100C20001946FFF79BFA10BD70B515460446026CD5
:100C3000866B002A19D0002D1CD0E068FFF78EFAD1
:100C4000206CE168091AE1602268914203D24042B7
:100C5000A1680818E060701E31468141A81E42421A
:100C600042410A40B61A002017E0206800280FD041
:100C7000002012E06068FFF771FA206C61680918C3
:100C80006160A2680020914207D32168616004E09E
:100C9000A06801F0FFF80021A160711CA16370BD84
:100CA00010B50446006B00F0CDFB204600F0CAFBF7
:100CB00010BD0000AE4909680A6853425341036001
:100CC000002A02D0C8680068704700207047C046FC
:100CD00070B50720124B1C460440C143DD1D0D407A
:100CE000002C284600D118466B4A10600326F602F5
:100CF000002C01D05B1B9E198319083B0B406749F0
:100D00000B60002454601C605C6009681A1A06C0FD
:100D1000044802600448026004480121017070BD6B
:100D200090000020CC1A0020C01A00208C1A00204D
:100D3000414CFFF743FF20680228FAD300F0E2FBA2
:100D4000F7E7C046B0B51C46049D002901D02A60D3
:100D500000E02D60E86329640121284600F041FD90
:100D600050202C540020A864B0BDF0B583B002938D
:100D70000F4601900A9C206B9600A5223146FFF792
:100D8000FFF9206B3018061F072021463431089DDB
:100D90000022002F0BD0BB5C8B54BB5C002B03D01C
:100DA000531C0E2A1A46F6D300228A7300E00A70FA
:100DB00086430096099E00272765042D00D304254D
:100DC000E564E562201D00F010FB2046183000F0BD
:100DD0000CFB0520401BA0616765A765E7652766DA
:100DE0006462246100AA07CA00F0C2FA2060002EE3
:100DF00000D0346003B0F0BDB0B500240E4D28190A
:100E000000F0E9FA1434642CF9D10C4C204600F0BF
:100E1000E2FA0B4D284600F0DEFA0A4800F0DBFA51
:100E2000094800F0D8FA094800F0D5FAD048046023
:100E300007480560B0BDC0462C000020901A002075
:100E4000A41A0020EC1A0020641B0020501B002074
:100E50002400002010B5104A114612688242FBD3CC
:100E60004B68CC18844203D14068C01848600846DB
:100E70004368C418944201D0144607E0074C246824
:100E8000A24203D05468E3184360146804608142AE
:100E900000D0086010BDC046481B00202000002084
:100EA00010B50C4641600061011D944205D99A427B
:100EB00001D29C420BD2C54804E0D21A806982421A
:100EC00005D2C348006800F093FA002010BD01204D
:100ED00010BDC04610B5044600F0A2FAA06B444213
:100EE000444100F0A7FA204610BD70B582B00190D1
:100EF000856CA86BE96B88420DD245202E5C01A958
:100F000000222846FFF790FE0446FF2E07D0453505
:100F1000701C287000E00024204602B070BD686A92
:100F20000028F9D02435284600F0E0FF0028F3D04F
:100F30000124F1E770B50D460646A4480068C06874
:100F4000C468201D00F02EFA2820205C410705D43B
:100F500021462831FE221040087004E02046314628
:100F60002A4600F0D9F8216A2046884770BDC0465D
:100F70001800002070B586B0514E306802A90022DA
:100F800000F0C9FC002865D00298002803D5059917
:100F90000498039A904702980028EED4049C606954
:100FA000002802D0201D00F0FDF901A800F0E4F8AF
:100FB00005460298401E0828DFD8C04678440079CC
:100FC00040008744121229043A12122904002820F2
:100FD000215C01220A4322540398A0614119204652
:100FE0002A462B46FFF75CFFC7E72820215C012239
:100FF0000A432254A069039BC11820462A46FFF7E2
:101000004FFF0028B9D02046283001784A0709D47C
:10101000FE22114001700CE02820215CFE220A40D3
:101020002254AAE7A0690399411820462A4600F0F5
:1010300073F8216A204688479FE72820205C8107B3
:1010400003D4204600F0FEF997E72834FE2108403B
:10105000207092E706B070BD70B582B00E460446AF
:1010600000F022FB01A800F087F80546019800284F
:1010700003D000F08BFF02B070BD002E09D1A54255
:1010800007D300F083FF20462946FFF753FF02B045
:1010900070BD002E05D04E480068006842424241B3
:1010A00000E00022611B0648006800F059FA00F0D9
:1010B0006DFF0028DFD100F025FA02B070BDC046F8
:1010C0007C1B0020024901220A7002490860704717
:1010D000BC1A0020B81A002070B5C72809D80C46E1
:1010E0000546044E305C002802D0FE20FFF7EAFFE0
:1010F000745570BD9018002070B5C72809D80C46EB
:101100000546044E305C002802D0EC20FFF7DAFFE1
:10111000745570BD58190020F0B581B014460D46C5
:1011200006468069411830462B46FFF7B9FE002875
:101130000DD0B769316A304688477D19B0694119C9
:10114000304622462B46FFF7ABFE0028F1D101B016
:10115000F0BD0000064801680968002903D0006856
:10116000C068006801E00020C04302490860704781
:101170001C000020D01A002070B5044600F0E2FDEB
:101180000546064E3068854203D200F009F801207A
:1011900000E0002035602060284670BD100000206F
:1011A00010B50A4C20680168002909D0C0680068A1
:1011B0000021C943FFF7BEFE206801680029F5D170
:1011C00003490A682260086010BDC046180000206C
:1011D0002800002081B00020009072B600980028FE
:1011E000FCD001B0704782B001A8FFF763FD019900
:1011F000FFF732FFFFF7BEFEF6E7F0B581B0044619
:1012000000F00EF9452020562646443601281BDB07
:101210002546243503E0781E79B2012914DD0746FE
:10122000A06C002805D02046FFF75FFE002808D1FB
:10123000F1E72868002807D0284600F057FE00286C
:10124000E9D000F0CFF9E6E7FF25757000F0F2F87D
:1012500000F0E6F8307847B2012F11DB103404E0DB
:10126000781E79B2012907460ADD2068002807D0D8
:10127000204600F03BFE0028F2D000F0B3F9EFE783
:10128000357000F0D7F801B0F0BD0000F0B581B0C6
:10129000054600F009FA324F3868002801D1FFF7FF
:1012A00017FD7C480078411E8841C007284201D0C4
:1012B00000244BE02846083000240928214609D3A1
:1012C00007210D4005D0411B0831814202D8002181
:1012D00000E00146704800684A1E824236D221482A
:1012E00006687268351D8A4208D23368002B05D023
:1012F00030461E465A681D1D8A42F6D33B689E4200
:1013000024D0046833680360521A112A04D3701879
:1013100042602960FFF79EFD28685F4A1168081A3D
:10132000106011490A68904200D20860594800785C
:10133000002131600D490A68521C0A60002801D062
:101340000120C007083429680143296000F01EFE0F
:10135000002C01D100F037F8204601B0F0BDC046A6
:1013600020000020481B0020CC1A0020E01A00209A
:101370000346083B1960011F01231B060B60014651
:101380000C39054B0B60014620390A600F21C94317
:10139000890040187047C046D5110008EFF310804F
:1013A00072B67047416882688A60826851600169DC
:1013B0004B68834200D14A600A68521E0A600022CC
:1013C00002610868704772B6FEE772B6FEE77047C2
:1013D00080F3108870470021016002460832C9433B
:1013E00042608160C2600261704700210161704704
:1013F000B0B50B685A1C07D004460834224664680E
:1014000025689D42FAD900E0026953689960086135
:101410004B608A6051600168491C0160B0BD0000EA
:1014200072B6D9480168491C0160BFF34F8FBFF302
:101430006F8F7047D4480168491E016000D0704723
:1014400062B6704770B5002810D004461148007885
:10145000411E8841C0070721C9430E1DA1590842FA
:1014600004D02546083D2A68002A00D070BD81437B
:10147000A15100F019F9A05907490A68101808602D
:101480002846FFF7E7FC05480168491C016000F0A9
:101490007DFD70BD8C1A0020C01A0020E41A0020C7
:1014A00010B5074C00202060A0607D20C1000548D9
:1014B0000068FEF777FE401E60600720206010BDC8
:1014C00010E000E004000020000000000000000028
:1014D0000B4A13681868203080F30988022080F3D3
:1014E0001488BFF36F8F3FBCAE4608BC04BC62B625
:1014F0001847C046C046C046C046C046C046C04663
:10150000140000200120000703490860BFF34F8F3B
:10151000BFF36F8F7047C04604ED00E070B500293F
:1015200012D000220D4B144603E02C460832402A0C
:101530000BD09D186E6886420CD0002CF6D19C58BA
:10154000002CF2D00025F0E70024002C01D021600F
:10155000606070BD9C18002CF9D1FAE7001B0020D8
:1015600070B515460E460446FFF75AFF4420215C2D
:1015700020464430FF2901D1002101704178FF2924
:1015800001D100214170FFF755FFA06B002805D164
:101590002046243031462A4600F034F82046FFF732
:1015A0002CFE70BD80B582B0002303200090019313
:1015B000044805A1802200F063FB00F043F802B06C
:1015C00080BDC046850B0008436865636B00000062
:1015D0000349096801603249096841607047C046A3
:1015E000DC1A0020564801210160704710B50C46F6
:1015F000544909681831FFF7FBFE01212046FFF727
:10160000F5F910BDF0B581B04E4B1C684568AE6869
:101610001F683E62E561AC681E68183666601C682B
:101620001834AC601B68986203685B1C0360002A76
:1016300001D00020C14308461146FFF7D7F901B099
:10164000F0BDC04610B582B00F4800240094019050
:101650000E480FA18022234600F012FB012801D181
:1016600000F022FD01280AD172B6E0430A49086061
:101670000A48012101600A48046000F06BF809483B
:10168000006802B010BDC046C81A0020310D000825
:1016900049444C4500000000D01A0020401B0020A7
:1016A000781B0020B025000824480168491C01600F
:1016B0007047C046F0B581B020480068002802D0CD
:1016C0001F48012137E01E48002505601D4C206899
:1016D000006B02681C498A4208D142688A4205D1DF
:1016E00082688A4202D1C068884204D0206821689A
:1016F0003431FFF76AFE15480168491C142213466D
:101700004B43134EF7180837EB4315465D437D19DD
:101710009E00F719183F3F68491E002F2F46F4D04E
:10172000AA595368AB51AA19AB4201D15B68136047
:101730001268D2682260016001B0F0BD501A00202A
:10174000841B002014000020A5A5A5A5581A002080
:101750002C00002010B5FF2001040A4A13680B4337
:1017600013600006116801431160FFF799FE0648F7
:1017700000240460FFF7ACFEFFF79CFFFFF72AFD93
:10178000204610BD20ED00E008000020F0B583B039
:10179000002822D014460D460646002739462A4620
:1017A0003B46FEF7C3FC481E814117D130466843D3
:1017B0005421C943884211D802945430FFF766FD82
:1017C00000280BD004460090024654323046294689
:1017D000029BFFF7B7FA274600E00027384603B020
:1017E000F0BD70B50026002838D00446C06B002834
:1017F00034D00D46226C002631463346FEF796FC67
:10180000481E81412AD126464436FFF709FE0020B2
:10181000A063FF20307021687070E06B226C431E63
:10182000504308185343CA186160A060E260204624
:101830001030002D06D0FFF7CEFD24342046FFF7F0
:10184000CAFD08E00168002905D000F04FFB002820
:1018500001D0FFF757FEFFF7EDFD0126304670BDC2
:10186000F0B583B01D4614460E460746FFF796FDB9
:10187000FA6BB96B022D03D0914201D3002611E01F
:101880000194029045203C5CB86B0090384631468C
:101890002A46FFF7C9F9FF2C09D04537601C38707C
:1018A00001260298FFF794FD304603B0F0BD009981
:1018B000B86C002807D00126022D019C14D1002904
:1018C00012D00298EEE7786A01260028019C16D013
:1018D0002437384600F00AFB002C14D00028029868
:1018E000E0D001262660DDE73846FFF7FEFA002C3F
:1018F00007D000280298D5D001262660D2E70298AA
:10190000D0E70298CEE70298CCE7C16B806B411A12
:10191000484248417047F0B589B0059105460892A4
:10192000243001902846103003902F464437002081
:1019300004900120029009E02846FFF75EFC00F0C9
:1019400025FB2846FFF7C6FA002861D1FFF768FD9E
:10195000AC6B002C16D028460599FFF753F9601E92
:10196000A8632869002806D0039800F0BFFA002871
:1019700001D0FFF7C7FDFFF75DFD0020012600281D
:1019800015D146E0089800280BD0012404980028BF
:1019900002D106A8FFF71CFE04940298002806D185
:1019A00037E0FFF747FD00263046002831D0FFF72B
:1019B00041FDFFF779FEFFF733FD3878FF2801D1AD
:1019C000002038707878FF2801D100207870FFF768
:1019D00031FD06A808A900F01FF90028ACD128465F
:1019E000FFF778FA00280DD008990198FFF7FEFD5F
:1019F0002846FFF702FC00F0C9FA0028A6D1FFF73D
:101A000081FDA3E72846FFF7F8FB00F0BFFA9DE74A
:101A10000026304609B0F0BDF0B583B015460E463D
:101A20000746FFF7BBFCBC6B002C11D00195029060
:101A300044203D5C38463146FFF7E4F8601EB86349
:101A4000FF2D0BD04437681C38700126029800E047
:101A50000026FFF7BDFC304603B0F0BD3869012613
:101A600000280CD01037384600F040FA01990029C0
:101A700007D000280298ECD001260E60E9E7029812
:101A8000E7E70298E5E7000070B582B05C480168BE
:101A9000491C016000200090C8075AD15C4E306894
:101AA00001A96A46FFF7B8FF012803D10198052173
:101AB000FFF722FB3068FFF728FF012814D0FFF75B
:101AC0006DFC0446534D2868401C286030686A4607
:101AD00000232946FFF7C4FE012802D02868401ED3
:101AE00028602046FFF774FC3068FFF70EFF0128DE
:101AF00014D0FFF753FC0446464D2868401C28606C
:101B000030686A4600232946FFF7AAFE012802D062
:101B10002868401E28602046FFF75AFC3068FFF70F
:101B2000F4FE012869D0FFF739FC0446394D2868D6
:101B3000401C286030686A4600232946FFF790FE63
:101B4000012802D02868401E28602046FFF740FC8C
:101B500053E02C4E3068FFF7D8FE012814D0FFF771
:101B60001DFC0446284D2868401C286030686A46E1
:101B700000232946FFF774FE012802D02868401E82
:101B800028602046FFF724FC3068FFF7BEFE0128DE
:101B900014D0FFF703FC04461B4D2868401C286046
:101BA00030686A4600232946FFF75AFE012802D012
:101BB0002868401E28602046FFF70AFC306801A90B
:101BC0006A46FFF729FF114C012804D1019805212D
:101BD000FFF782FA02E02046FFF774FA306801A9A5
:101BE0006A46FFF719FF012804D101980521FFF784
:101BF00073FA02E0601CFFF765FA009802B070BD4E
:101C0000441B0020D41A00205C1A0020A602000009
:101C1000D81A0020601A0020F0B581B00D460646A3
:101C2000FFF7FEFB706896490968D74A146863237A
:101C3000E45C002C08D010680021C1540124FFF797
:101C4000F9FB204601B0F0BD2A680024531CF6D0F1
:101C50008E4B1B68814206D33768BB4203D00020FD
:101C600028600124EBE7081A824205D9101A28607F
:101C70003046FFF7ADFCE2E7002028600124DEE7F4
:101C8000F0B587B006931546059104909000FFF7D4
:101C9000FDFA002700283C4607D006466420FFF7DF
:101CA000F5FA002814D004460663002C16D00D98CF
:101CB0000C99009101900294049805992A46069B7C
:101CC000FFF753F82046FEF7DDFE012007B0F0BD18
:101CD0003046FFF7B7FB3C46002CE8D1F84307B08D
:101CE000F0BD000070B50C460546FFF7DDFC64480A
:101CF00000682A68111901240026904208D2814206
:101D0000234600D83346914200D334461C4007E0B6
:101D10008142234600D83346914200D334461C43C7
:101D20002960002C03D0081A0021FEF75FFE00F0A6
:101D30002DF9002801D0204670BDFFF7E3FB2046B7
:101D400070BDC0464E4800687047C046F0B583B0CD
:101D5000CD480068002807D0D2480168491C0160BE
:101D6000FFF735FB002488E0454801684D1C0560FD
:101D70000BD344480168444A136803601160434828
:101D80000168491C0160FFF7E5F941490868002432
:101D900085425DD3E04301903A4E306800680028E8
:101DA00054D00020029003E03068006800284BD037
:101DB0003068C068C1684868854242D3081D8B6896
:101DC000CA689A60CA6853604B695F68874200D1ED
:101DD0005A6000274F611A68521E1A608B6A002BE6
:101DE00011D02E46CC690A6AA2600A6A54600C4679
:101DF00018345D68A54200D15A608F621A68521E7D
:101E00001A6035461F4ECF6AA24A1268974201D91E
:101E1000A04A176014227A439F4CA3585B1CA3501E
:101E2000A21853689C688B60CC604A6199684860CE
:101E300098609A480068C06A8742B5D30120029032
:101E4000B2E7029C124902E0029C11490198086025
:101E500092480068C06A142141438F4840580128C5
:101E600000D901248F480068002801D1FFF7AFFA9C
:101E70008B480068002800D00124204603B0F0BD44
:101E8000781B00201C00002024000020DC1A002009
:101E9000D01A0020B0B504460020002C25D0216DBA
:101EA000491E216521D1E16CE26A8A421DD0251DBF
:101EB0002846FFF777FAE06CE0620521091AA16174
:101EC00074490A68904200D908601421414372485D
:101ED0004258521C4250401841688A68A160E26032
:101EE0006061886845608D600120B0BDB0B5C06894
:101EF000C168C8690A6A82600B6A58600A4618326B
:101F0000886A4468944200D1436003685B1E0360A2
:101F1000002088625C4B1B68002B06D05C4B5C6821
:101F2000A568CC610D628B621EE08A68CB68936005
:101F3000CC6862600A1D4B695D68954200D15C60A7
:101F40001C68641E1C6000234B61CB6A514C2568E1
:101F5000AB4200D9236014245C434F4B1B195C68CF
:101F6000A5688C60CD604B61A5686A60A2601A6844
:101F7000521C1A60C96A494A1268D26A914202D94F
:101F8000474901200860B0BD14000020F0B581B0C1
:101F9000FFF746FA3C480168491E016000680024CA
:101FA000002804D0FFF746FA204601B0F0BD3748BC
:101FB00000680028F6D03648016800294AD000940D
:101FC000354A02E0016800293FD0C368DE68F36942
:101FD000346A9C60356A6B6033461833B76A7C6834
:101FE0009C4200D17D600025B5623B685B1E3B6072
:101FF000B468F368A360F3685C60371D7469616856
:10200000B94200D163602168491E21607561F56A9B
:10201000204909688D4201D91E490D601421694388
:1020200053585B1C535051184B689C68B360F46064
:10203000716199684F609F6018490968C96A8D424B
:10204000C0D30121164B1960BCE7002E009C01D0C3
:10205000FFF780F8134D2E68002E0CD0104F01E0D2
:10206000761E06D0FFF772FE0028F9D001203860F6
:10207000F6E7002028600A480068002892D0FFF7A1
:1020800041FA01248EE7C046501A0020481A002069
:10209000EC1A0020581A00202C0000201400002008
:1020A000841B0020E81A002080B582B0FEF738FDBE
:1020B0000948006800280BD00848042100910190CD
:1020C000074808A150220023FFF7DAFD02B080BDC7
:1020D000002002B080BDC0467C1B0020801B002079
:1020E000E7110008546D7220537663000FB410B5E9
:1020F00003A9044B044A029800F018F810BC08BC6D
:1021000004B01847B90900080000002002E008C820
:10211000121F08C1002AFAD170477047002001E061
:1021200001C1121F002AFBD170470000FFB591B01A
:102130000F460546002606E025280AD0149A139972
:1021400090476D1C761C28780028F5D1304615B0D4
:10215000F0BD002400940121F34A029400E00443FE
:102160006D1C2B780846203B98401042F7D1287808
:102170002A280ED0022128780246303A092A15D89A
:10218000009A0A235A43303A80180C436D1C009081
:10219000F1E701CF0090002805DA01204003044355
:1021A000009840420090022004436D1C28782E289D
:1021B00015D10420044368786D1C2A280AD101CF68
:1021C0006D1C02900BE002990A22514330394018ED
:1021D0006D1C02902878014630390929F3D92878F6
:1021E0006C2810D006DC4C281AD068280ED06A283B
:1021F00017D104E0742813D07A2812D110E00120FE
:10220000400504430CE00121090501E00321090513
:102210000C436978814203D10120000524186D1C0C
:102220006D1C287803906E281ED00CDC632831D0FA
:1022300004DC00288AD0582811D1B2E064287BD071
:1022400069280CD178E073282DD004DC6F2870D079
:10225000702804D1A7E075286CD078286BD0149A28
:1022600013999047761C62E06002400F022807D065
:1022700003280AD0042838680AD006603F1D56E0BB
:102280003868F11706604160F8E738680680F5E7BE
:102290000670F3E73878694608740020487404A88B
:1022A0000390012003E0386803900020C0433F1DE5
:1022B00061070FD5002101E00199491C029A0191A3
:1022C000914213DA8142F7DB019A0399895C002974
:1022D000F2D10BE0002101E00199491C01918142FA
:1022E000FADB019A0399895C0029F5D101990098DC
:1022F000139A401A00902146149B00F03BF9019973
:102300008019461807E0039803990078491C039147
:10231000149A139990470198401E0190401CF2D1E5
:102320002146149B139A009800F014F986196D1C2D
:1023300009E741E033E034E00A20002104900591F0
:102340006002410F022905D001CFC217944603292C
:1023500005D007E0FF1DFF08FF0003CF06E000B235
:10236000C2179446042902D140B2C1178C460022FC
:102370006146944506DA0A460021404291418C4666
:102380002D2102E0210504D52B216A461176012179
:1023900003E0E10701D02021F7E7019154E00A2092
:1023A0000BE0102009E010200490002104200443D9
:1023B00008200591029003E0082000210591049077
:1023C0006002410F022905D001CF00229446032963
:1023D00006D006E0FF1DFF08FF0003CF8C4603E098
:1023E00080B2042900D1C0B20021019121072BD570
:1023F0000399702906D0049A1021059B4A401A437C
:1024000005D00EE040216A461176012108E06146C0
:10241000014306D030216A46117603995176022194
:102420000191049A0821059B4A401A430CD1614648
:10243000014301D1610707D530216A461176012198
:1024400001910299491E02910399582904D037A19C
:1024500003910FA90F910DE039A1F9E76146059BA2
:10246000049AFDF7BEFE039B8C469B5C0F9A521E9E
:102470000F92137061460143F0D10F9807A9081A13
:1024800020300390600704D50120000484430298A3
:1024900001E0012002900399884201DD401A00E02A
:1024A000002041180290019809180098401A0090E5
:1024B000E00306D42146149B139A009800F05AF8C2
:1024C00086190020049008E006A9085C149A139964
:1024D00090470498401C761C049001998842F3DBD5
:1024E000E0030CD52146149B139A009800F042F8A3
:1024F000861904E0149A302013999047761C0299AB
:10250000481E02900029F5DC08E00F980F9900782A
:10251000491C0F91149A13999047761C0399481EF1
:1025200003900029F1DCFBE6092801003031323349
:1025300034353637383961626364656600000000FF
:1025400030313233343536373839414243444546E9
:1025500000000000F8B5044600251E461746880412
:1025600004D405E039462020B0476D1C641EF9D51F
:102570002846F8BDFFB50446002581B01E46C803B5
:1025800001D5302700E02027880404D505E038462F
:102590000399B0476D1C641EF9D5284605B0F0BDFF
:1025A00000000000010203040102030406070809F9
:1025B00004000000D4250008000000200C000000EA
:1025C0000C210008E025000810000020781D000004
:1025D0001C21000800000000006CDC02AAAAAAAAC4
:04000005080000D51A
:00000001FF
